:100000000C9434000C9476000C9476000C947600DA
:100010000C9476000C9476000C9476000C94760088
:100020000C9476000C9476000C9476000C94760078
:100030000C9476000C9476000C9476000C94760068
:100040000C9476000C9476000C9476000C94760058
:100050000C9476000C9476000C9476000C94760048
:100060000C9476000C94760011241FBECFEFD8E0DC
:10007000DEBFCDBF0E9440000C946400F894FFCF17
:1000800087E690E00E9459008AB18B7F8AB98BB1D4
:1000900084608BB94A99FECF81E00E946F002FE9FE
:1000A00086E891E0215080409040E1F700C00000D8
:0200B000F1CF8E
:1000B2009093C5008093C40088E18093C1008EE0D4
:0600C2008093C2000895C6
:1000C800EC010E947B000E947A00CE010E947C0015
:0600D800CE010E94780039
:0E00DE009091C00095FFFCCF8093C60008955E
:0400EC000C94000070
:0400F0000E943E002C
:0200F40008956D
:0200F60008956B
:0200F800089569
:00000001FF
