:100000000C9437000C94F9010C94F9010C94F9014B
:100010000C94F9010C94F9010C94F9010C94F90178
:100020000C94F9010C94F9010C94F9010C94F90168
:100030000C94F9010C94F9010C94F9010C94F90158
:100040000C94F9010C94F9010C94F9010C94F90148
:100050000C94F9010C94F9010C94F9010C94F90138
:100060000C94F9010C94F90101000108800011249D
:100070001FBECFEFD4E0DEBFCDBFE8E6F0E040E04A
:1000800017C0B591A59135912591059107FD0CC03B
:1000900095918591EF01F92FE82F05900D92A21708
:1000A000B307D9F7FE0104C01D92A217B307E1F709
:1000B000ED36F40731F70E9461000C94C801F89402
:0200C000FFCF70
:1000C2000E94F3010E943E010E94E5010E94B301D9
:1000D2002FEF84E39CE0215080409040E1F700C084
:1000E200000084EB90E086FD04C021E02093020131
:1000F20002C010920201882324F081E08093030160
:1001020002C0109203012FEF80E792E0215080405D
:100112009040E1F700C000000E94E700882324F02D
:1001220081E08093040102C0109204012FEF80E766
:1001320092E0215080409040E1F700C00000C2E010
:10014200D1E063E08C810E94830164E089E50E9432
:1001520083018D830E94EC018FE097E20197F1F712
:0601620000C00000BECF4A
:10016800CF938CE30E9462018FE097E20197F1F749
:1001780000C0000085E20E949D019FEF20E782E019
:10018800915020408040E1F700C000008DE30E94BC
:100198001A018FE097E20197F1F700C000000E9472
:1001A800D301C82F8FE097E20197F1F700C0000054
:1001B8000E94DD018FE097E20197F1F700C000008F
:0601C8008C2FCF91089579
:1001CE00CF938AE50E9462018FE097E20197F1F7E3
:1001DE0000C0000085E30E949D019FEF20E782E0B2
:1001EE00915020408040E1F700C000008BE50E9456
:1001FE001A018FE097E20197F1F700C000000E940C
:10020E00D301C82F8FE097E20197F1F700C00000ED
:10021E000E94DD018FE097E20197F1F700C0000028
:06022E008C2FCF91089512
:1002340094EA9093BC009091BC009923E4F79091C8
:10024400B900987F903191F48093BB0084E8809347
:10025400BC008091BC008823E4F78091B900887FBA
:10026400803431F0803231F482E0089580E00895E2
:0802740081E0089583E0089584
:10027C0080E90E9462018FE097E20197F1F700C0DC
:10028C0000008CEA0E949D018FE097E20197F1F744
:10029C0000C0000083E00E949D018FE097E201976F
:1002AC00F1F700C000000E94DD018FE097E201979A
:0802BC00F1F700C000000895F5
:1002C400CF93C82F84EA8093BC008091BC0088231C
:1002D400E4F78091B900887F8830A1F7C093BB0010
:1002E40084E88093BC008091BC008823E4F780916B
:1002F400B900887F883119F00E94DD01E3CFCF91E6
:0203040008955A
:100306009BB19C619BB99BB121E030E002C0220FFA
:10031600331F6A95E2F7209529232BB9EFECF7E016
:100326003197F1F700C000008EBD0DB407FEFDCF7A
:040336008EB50895E3
:10033A008093BB0084E88093BC008091BC00882332
:10034A00E4F78091B900887F883221F0803321F464
:0C035A0081E0089580E0089582E008959D
:100366001092C5008CE08093C400E0ECF0E0808140
:1003760082608083E1ECF0E0808188618083E2EC3A
:0A038600F0E0808186608083089516
:10039000EC010E94FE010E94FD01CE010E94FF01BE
:0603A000CE010E94FB01EA
:1003A60084E88093BC008091BC008823E4F78091A8
:0403B600BB000895EB
:1003BA0084E98093BC008091BC0084FDFCCF089541
:0E03CA008CE284B98CE18AB981E58CBD08957E
:0E03D8009091C00095FFFCCF8093C600089561
:0C03E6001092B9008FEF8093B8000895CA
:0403F2000C94000067
:0403F6000E945F0002
:0203FA00089564
:0203FC00089562
:0203FE00089560
:00000001FF
