:100000000C9437000C94CD000C94CD000C94CD00D2
:100010000C94CD000C94CD000C94CD000C94CD002C
:100020000C94CD000C94CD000C94CD000C94CD001C
:100030000C94CD000C94CD000C94CD000C94CD000C
:100040000C94CD000C94CD000C94CD000C94CD00FC
:100050000C94CD000C94CD000C94CD000C94CD00EC
:100060000C94CD000C94CD000100010880001124F7
:100070001FBECFEFD4E0DEBFCDBFE8E6F0E040E04A
:1000800017C0B591A59135912591059107FD0CC03B
:1000900095918591EF01F92FE82F05900D92A21708
:1000A000B307D9F7FE0104C01D92A217B307E1F709
:1000B000ED36F40731F70E9461000C94B400F89417
:0200C000FFCF70
:1000C2000E94BF000E949F002FEF84E39CE021501A
:1000D20080409040E1F700C00000C2E0D1E063E060
:1000E2008C810E94850064E089E50E9485008D83F1
:1000F2000E94C6008D810E94C6008FE097E20197A0
:08010200F1F700C00000E9CF95
:10010A009BB19C619BB99BB121E030E002C0220FF8
:10011A00331F6A95E2F7209529232BB9EFECF7E014
:10012A003197F1F700C000008EBD0DB407FEFDCF78
:04013A008EB50895E1
:10013E001092C5008CE08093C400E0ECF0E080816A
:10014E0082608083E1ECF0E0808188618083E2EC64
:0A015E00F0E0808186608083089540
:10016800EC010E94D2000E94D100CE010E94D3006F
:06017800CE010E94CF0041
:0E017E008CE284B98CE18AB981E58CBD0895CC
:0E018C009091C00095FFFCCF8093C6000895AF
:04019A000C940000C1
:04019E000E945F005C
:0201A2000895BE
:0201A4000895BC
:0201A6000895BA
:00000001FF
