:100000000C9437000C9469010C9469010C946901FB
:100010000C9469010C9469010C9469010C946901B8
:100020000C9469010C9469010C9469010C946901A8
:100030000C9469010C9469010C9469010C94690198
:100040000C9469010C9469010C9469010C94690188
:100050000C9469010C9469010C9469010C94690178
:100060000C9469010C9469010100010680001124BF
:100070001FBECFEFD4E0DEBFCDBFE8E6F0E040E04A
:1000800017C0B591A59135912591059107FD0CC03B
:1000900095918591EF01F92FE82F05900D92A21708
:1000A000B307D9F7FE0104C01D92A217B307E1F709
:1000B000ED36F40731F70E9461000C942701F894A3
:0200C000FFCF70
:1000C2000E94C4000E9453010E9412012FE986E897
:1000D20091E0215080409040E1F700C00000C0E074
:1000E200D1E063E08C810E94F80064E089E50E941F
:1000F200F8008D830E945A0180E90E944B018EEE26
:100102000E944B010E94650181EE94E00197F1F794
:1001120000C000000E945A0180E90E944B018AEA55
:100122000E944B010E945A0181E90E944B010E94E8
:100132003B010E9443010E94650181EE94E0019718
:10014200F1F700C000000E945A018CE30E944B01AB
:1001520085E20E944B010E945A018DE30E944B01ED
:100162000E943B010E9443010E94650181EE94E0DE
:100172000197F1F700C0000081EE94E00197F1F7DA
:0601820000C00000ACCF3C
:100188000E9432010E945A0180E90E944B018CEAC8
:100198000E944B0183E00E944B010E94650181EEA1
:1001A80094E00197F1F700C000000E945A0180E92D
:1001B8000E944B0181EA0E944B0187E10E944B019A
:1001C80080E80E944B010E9465010E945A0180E963
:1001D8000E944B0182EA0E944B0185E10E944B017B
:0801E80080E00E944B01089524
:1001F0009BB19C619BB99BB121E030E002C0220F12
:10020000331F6A95E2F7209529232BB9E9EFF0E037
:100210003197F1F700C000008EBD0DB407FEFDCF91
:040220008EB50895FA
:100224001092C5008CE08093C400E0ECF0E0808183
:1002340082608083E1ECF0E0808188618083E2EC7D
:0A024400F0E0808186608083089559
:10024E00EC010E946E010E946D01CE010E946F01B1
:06025E00CE010E946B01BD
:1002640080E28093B800ECEBF0E0808184608083CE
:020274000895EB
:1002760084EC8093BC000E9460018091BB000895CD
:1002860084E88093BC000E9460018091BB000895C1
:100296008093BB0084E88093BC000E9460010895AF
:0E02A6008CE284B98CE18AB981E58CBD0895A3
:0C02B40084EA8093BC000E946001089561
:0A02C0008091BC008823E4F7089544
:0802CA0084E98093BC00089553
:0402D2000C94000088
:0402D6000E945F0023
:0202DA00089585
:0202DC00089583
:0202DE00089581
:00000001FF
