:100000000C9437000C94D2000C94D2000C94D200C3
:100010000C94D2000C94D2000C94D2000C94D20018
:100020000C94D2000C94D2000C94D2000C94D20008
:100030000C94D2000C94D2000C94D2000C94D200F8
:100040000C94D2000C94D2000C94D2000C94D200E8
:100050000C94D2000C94D2000C94D2000C94D200D8
:100060000C94D2000C94D2000100010880001124ED
:100070001FBECFEFD4E0DEBFCDBFE8E6F0E040E04A
:1000800017C0B591A59135912591059107FD0CC03B
:1000900095918591EF01F92FE82F05900D92A21708
:1000A000B307D9F7FE0104C01D92A217B307E1F709
:1000B000ED36F40731F70E9461000C94B900F89412
:0200C000FFCF70
:1000C2000E94A4000E94C4002FEF84E39CE0215010
:1000D20080409040E1F700C00000C2E0D1E062E061
:1000E2008B810E948A0063E08C810E948A0064E016
:1000F20089E50E948A008D8381E40E94CB008AE018
:100102000E94CB008FE097E20197F1F700C0000058
:02011200E4CF38
:100114009BB19C619BB99BB121E030E002C0220FEE
:10012400331F6A95E2F7209529232BB9EFECF7E00A
:100134003197F1F700C000008EBD0DB407FEFDCF6E
:040144008EB50895D7
:100148001092C50083E38093C400E0ECF0E0808166
:1001580082608083E1ECF0E0808188618083E2EC5A
:0A016800F0E0808186608083089536
:10017200EC010E94D7000E94D600CE010E94D80056
:06018200CE010E94D40032
:0E0188008CE284B98CE18AB981E58CBD0895C2
:0E0196009091C00095FFFCCF8093C6000895A5
:0401A4000C940000B7
:0401A8000E945F0052
:0201AC000895B4
:0201AE000895B2
:0201B0000895B0
:00000001FF
