:100000000C9437000C94D8000C94D8000C94D800B1
:100010000C94D8000C94D8000C94D8000C94D80000
:100020000C94D8000C94D8000C94D8000C94D800F0
:100030000C94D8000C94D8000C94D8000C94D800E0
:100040000C94D8000C94D8000C94D8000C94D800D0
:100050000C94D8000C94D8000C94D8000C94D800C0
:100060000C94D8000C94D8000100010280001124E7
:100070001FBECFEFD8E0DEBFCDBFE8E6F0E040E046
:1000800017C0B591A59135912591059107FD0CC03B
:1000900095918591EF01F92FE82F05900D92A21708
:1000A000B307D9F7FE0104C01D92A217B307E1F709
:1000B000ED36F40731F70E9461000C94A700F89424
:0200C000FFCF70
:1000C2000E949A002FE986E891E0215080409040FA
:1000D200E1F700C0000084B1836084B90E94D000BF
:1000E20081E60E94BC000E94C600809301010E942A
:1000F200B20080910101813021F485B1826085B91D
:1001020003C085B18D7F85B980910001813021F4D2
:1001120085B1816085B903C085B18E7F85B92FE332
:100122008DE093E0215080409040E1F700C0000054
:02013200D5CF27
:1001340088B1806388B91092B9008CE08093B800CC
:0A01440084EA8093BC0078940895CB
:10014E00EC010E94DD000E94DC00CE010E94DE0068
:06015E00CE010E94DA0050
:1001640084E98093BC0089EF90E00197F1F700C027
:0401740000000895EA
:100178008093BB0084E88093BC008091BC008823F6
:04018800E4F70895FB
:10018C0084E88093BC008091BC008823E4F78091C4
:04019C00BB00089507
:1001A00084EA8093BC008091BC008823E4F7089522
:0401B0000C940000AB
:0401B4000E945F0046
:0201B8000895A8
:0201BA000895A6
:0201BC000895A4
:00000001FF
