S017000041546D65676131365F4D61737465722E73726563AC
S11300000C94B1000C94BB000C94BB000C94BB008A
S11300100C94BB000C94BB000C94BB000C94BB0070
S11300200C94BB000C94BB000C94BB000C94BB0060
S11300300C94BB000C94BB000C94BB000C94BB0050
S11300400C94BB000C94BB000C94BB000C94BB0040
S11300500C94BB000C94BB000C94BB000C94BB0030
S11300600C94BB000C94BB0000407A10F35A00A01F
S1130070724E18090010A5D4E80000E8764817006D
S113008000E40B54020000CA9A3B000000E1F505AD
S1130090000080969800000040420F000000A086F7
S11300A001000000102700000000E8030000000029
S11300B06400000000000A000000000001000000CD
S11300C000002C76D888DC674F0823DFC1DFAE59E7
S11300D0E1B1B796E5E3E453C63AE651997696E87A
S11300E0E6C28426EB898C9B62ED407C6FFCEFBCFE
S11300F09C9F40F2BAA56FA5F490055A2AF75C9329
S11301006B6CF9676DC11BFCE0E40D47FEF520E65E
S1130110B500D0ED902E0300943577050080841E41
S1130120080000204E0A000000C80C333333330F9C
S1130130986E12831141EF8D2114893BE65516CF39
S1130140FEE6DB18D1844B381BF77C1D901DA4BB45
S1130150E424203284725E228100C9F124ECA1E5FA
S11301603D2711241FBECFEFD4E0DEBFCDBF0E94D8
S1130170EB000C9476050C9400001092C50087E601
S11301808093C400E1ECF0E0808188618083E2EC3C
S1130190F0E08081866080830895E0ECF0E0908157
S11301A095FFFDCF8093C60008950F931F93CF93BF
S11301B0FC018081882359F08F01C0E00E94CD00AA
S11301C0CF5FF801EC0FF11D80818111F7CFCF9142
S11301D01F910F910895CF93DF9300D000D000D0EA
S11301E0CDB7DEB787B1876087B940984198429808
S11301F00E940F020E94BD0080E90E9447028FE026
S113020097E20197F1F700C000008CEA0E94830294
S11302108FE097E20197F1F700C0000083E00E94AD
S113022083028FE097E20197F1F700C000000E947B
S11302303E028FE097E20197F1F700C0000081E4ED
S11302400E94CD008CE30E9447028FE097E2019761
S1130250F1F700C0000085E20E9483029FEF20E7CF
S113026082E0915020408040E1F700C000008DE31F
S11302700E9418028FE097E20197F1F700C0000096
S11302800E94A502182F8FE097E20197F1F700C0B2
S113029000000E943E028FE097E20197F1F700C050
S11302A0000016FD02C0419A01C04198112314F0C8
S11302B0429A01C042989FEF20E782E0915020408B
S11302C08040E1F700C000008AE50E9447028FE009
S11302D097E20197F1F700C0000085E30E948302D2
S11302E09FEF20E782E0915020408040E1F700C07A
S11302F000008BE50E9418028FE097E20197F1F766
S113030000C000000E94A502182F8FE097E2019719
S1130310F1F700C000000E943E028FE097E20197CF
S1130320F1F700C00000112314F0409A01C0409876
S11303309FEF20E782E0915020408040E1F700C029
S1130340000080E90E9447028FE097E20197F1F7ED
S113035000C000008EEE0E9483028FE097E20197B6
S1130360F1F700C000000E943E028FE097E201977F
S1130370F1F700C0000080E90E9447028FE097E295
S11303800197F1F700C000008AEA0E9483028FE01F
S113039097E20197F1F700C0000081E90E9418027A
S11303A08FE097E20197F1F700C000000E949A02E3
S11303B0182F8FE097E20197F1F700C000000E9428
S11303C0A5028FE097E20197F1F700C000000E94B8
S11303D03E028FE097E20197F1F700C00000612F21
S11303E0110F770B880B990B0E94B2028E010F5FDD
S11303F01F4F20E030E044E050E00E94ED02C801CD
S11304000E94D5008AE00E94CD0081E40E94CD00C4
S11304108DE00E94CD008AE00E94CD0010CF80E2E2
S11304208093B800ECEBF0E08081846080830895D1
S113043094EA9093BC00ECEBF0E090819923ECF704
S11304409091B900987F903199F48093BB0084E82F
S11304508093BC00ECEBF0E080818823ECF7809182
S1130460B900887F803431F0803231F083E0089520
S113047080E0089581E0089582E0089584E98093FE
S1130480BC00ECEBF0E0808184FDFDCF0895BF92C9
S1130490CF92DF92EF92FF920F931F93CF93DF934C
S11304A0B82ECCEBD0E00F2EF4EADF2EF02D09EBC2
S11304B010E00F2EFBEBEF2EF12CF02D0F2EF4E8B5
S11304C0CF2EF02DD88288818823ECF7F801808123
S11304D0887F8830B9F7F701B082C8828881882381
S11304E0ECF7F8018081887F883119F00E943E0280
S11304F0E9CFDF91CF911F910F91FF90EF90DF90A3
S1130500CF90BF9008958093BB0084E88093BC0093
S1130510ECEBF0E080818823ECF78091B900887FD0
S1130520883221F0803321F082E0089580E008953C
S113053081E0089584EC8093BC00ECEBF0E08081D2
S11305408823ECF78091BB00089584E88093BC0075
S1130550ECEBF0E080818823ECF78091BB000895F8
S1130560E89409C097FB3EF4909580957095619549
S11305707F4F8F4F9F4F9923A9F0F92F96E9BB27FF
S11305809395F695879577956795B795F111F8CF7B
S1130590FAF4BB0F11F460FF1BC06F5F7F4F8F4FE6
S11305A09F4F16C0882311F096E911C0772321F0DC
S11305B09EE8872F762F05C0662371F096E8862F74
S11305C070E060E02AF09A95660F771F881FDAF7CB
S11305D0880F9695879597F90895EF920F931F9337
S11305E0CF93DF93E80147FD02C034E001C034E15A
S11305F0042E000C550B57FF03C05195419551092A
S1130600E32E022F242FAE010E940D03CE01DF91B1
S1130610CF911F910F91EF900895A9E0B0E0E3E12D
S1130620F3E00C9445056A01122FB02E2BE320173A
S113063020F0FF24F394F00E02C02CE3F22E0F2DD1
S113064027E0AE014F5F5F4F0E946704BC01498100
S1130650842F8970813031F0E1FC06C0E0FE06C0D1
S113066090E205C09DE203C09BE201C090E05E2DD4
S1130670507143FF3CC0911102C083E001C084E08B
S1130680811718F4212F281B01C020E051110BC041
S1130690F601822F30E2882319F031938150FBCF89
S11306A0C20ED11C20E0992329F0D6019C93F601B7
S11306B031966F01C6010396E2FE0AC03EE4D601FC
S11306C03C9341E411964C93119712963C9306C0C7
S11306D03EE6F601308341E641833283FC01322F4A
S11306E040E2332309F442C041933150FACF42FF30
S11306F044C0911102C083E001C084E0811718F462
S1130700212F281B01C020E051110BC0F601822FBC
S113071030E2882319F031938150FBCFC20ED11CF3
S113072020E0992329F0D6019C93F60131966F01BC
S1130730C6010396E2FE0BC039E4D6013C933EE4C5
S113074011963C93119736E412963C9307C039E610
S1130750F60130833EE6318336E63283FC01322FE4
S113076040E2332319F041933150FBCFFC01E20FF7
S1130770F11D10828EEF9FEFA6C021E030E09111B1
S113078002C020E030E0161617061CF4FB01319677
S113079002C0E1E0F0E02E0F3F1FBB2021F0EB2D63
S11307A0F0E0319602C0E0E0F0E02E0F3F1FE12FB1
S11307B0F0E02E173F071CF4121B212F01C020E08C
S11307C08E2D887159F4F601822F30E2882319F0B6
S11307D031938150FBCFC20ED11C20E0992329F024
S11307E0D6019C93F60131966F0151110BC0F601AD
S11307F0822F90E3882319F091938150FBCFC20E8E
S1130800D11C20E00F2D060F9A81342F307144FF44
S113081003C0913309F40150101624F4093018F080
S113082008E001C001E0AB0177FF02C040E050E006
S1130830FB01E41BF50BA1E0B0E0AC0FBD1FEA0F18
S1130840FB1F8EE2A82E4B01801A91080B2D10E09D
S11308501195019511094F3FBFEF5B0721F4D601B4
S1130860AC9211966D01641775072CF084169506E9
S113087014F4818101C080E3415051093196D601BD
S113088011967D014017510724F0D6018C9367011E
S1130890E2CF6417750739F4963320F4953319F4CD
S11308A0311101C081E3F6018083F701822F90E2C8
S11308B0882319F091938150FBCFF701E20FF11DCA
S11308C0108280E090E02996ECE00C9461052830D9
S11308D008F027E03327DA01990F311D87FD916075
S11308E000966105710539F432602E5F3D9330E363
S11308F02A95E1F708959F3F30F08038710561052E
S113090009F03C5F3C5F3D93913008F08068911D95
S1130910DF93CF931F930F93FF92EF92192F987F3A
S11309209695E92F96959695E90FFF27EE53FF4F7D
S113093099273327EE24FF24A701E70105900894A3
S1130940079428F4360FE71EF81E491F511D660F41
S1130950771F881F991F0694A1F70590079428F420
S1130960E70EF81E491F561FC11D770F881F991FD8
S1130970661F0694A1F70590079428F4F80E491F02
S1130980561FC71FD11D880F991F661F771F069416
S1130990A1F70590079420F4490F561FC71FD81FCD
S11309A0990F661F771F881F0694A9F784911095E5
S11309B0177041F0D695C79557954795F794E794E6
S11309C01A95C1F7E8E6F0E0689415901591359111
S11309D06591959105907FE27395E118F10A430BB7
S11309E0560BC90BD009C0F7E10CF11E431F561F6B
S11309F0C91FD01D7EF4703311F48A95E6CFE894B4
S1130A00015030F0080F0AF40027021708F4202FD1
S1130A102395022F7A3328F079E37D932A95E9F719
S1130A2010C07D932A9589F6069497956795379516
S1130A3017951794E118F10A430B560BC90BD0090B
S1130A4098F023957E9173957A3308F070E37C9344
S1130A502013B8F77E9170617D9330F0839571E334
S1130A607D9370E32A95E1F71124EF90FF900F91A5
S1130A701F91CF91DF91992787FD909508952F922B
S1130A803F924F925F926F927F928F929F92AF921A
S1130A90BF92CF92DF92EF92FF920F931F93CF9367
S1130AA0DF93CDB7DEB7CA1BDB0B0FB6F894DEBFFE
S1130AB00FBECDBF09942A88398848885F846E8424
S1130AC07D848C849B84AA84B984C884DF80EE806E
S1130AD0FD800C811B81AA81B981CE0FD11D0FB677
S1130AE0F894DEBF0FBECDBFED010895F894FFCF9B
S9030000FC
