:100000000C9437000C940F010C940F010C940F0109
:100010000C940F010C940F010C940F010C940F0120
:100020000C940F010C940F010C940F010C940F0110
:100030000C940F010C940F010C940F010C940F0100
:100040000C940F010C940F010C940F010C940F01F0
:100050000C940F010C940F010C940F010C940F01E0
:100060000C940F010C940F01010001018000112478
:100070001FBECFEFD4E0DEBFCDBFE8E6F0E040E04A
:1000800017C0B591A59135912591059107FD0CC03B
:1000900095918591EF01F92FE82F05900D92A21708
:1000A000B307D9F7FE0104C01D92A217B307E1F709
:1000B000ED36F40731F70E94A9000C94EB00F89498
:0200C000FFCF70
:1000C20029B130E002C0359527958A95E2F7C9013A
:1000D2008170992720FD0CC045B121E030E002C0BB
:1000E200220F331F6A95E2F72095242325B908953C
:1000F20025B181E090E002C0880F991F6A95E2F76E
:0A010200822B85B981E090E008959A
:10010C0084EC8093BC008091BC008823E4F7809140
:10011C00B900887F803811F0803919F48091BB00C8
:10012C000895883811F0883919F48091BB0008952E
:10013C00803A39F4ECEBF0E08081806880838FEFBB
:06014C0008958EEF0895F6
:100152008CE30E9409010E94F60062E087E00E949F
:100162006100C1E0D0E002C0CC0FDD1F8A95E2F74A
:1001720061E086E00E9461008C2B8093000187EA97
:1001820091E60197F1F700C0000065E2809100015D
:060192000E940001E2CF13
:100198008091BC008823E4F78091B900887F80367D
:1001A80061F0883661F0883A61F0803B61F0803711
:1001B80061F0883769F782E0089580E0089580E06B
:0E01C800089581E0089581E0089582E0089591
:1001D600EC010E9414010E941301CE010E94150138
:0601E600CE010E94110190
:1001EC008AB18F7B8AB98BB1806C8BB984B18660F4
:0401FC0084B9089525
:100200000E94CC00811104C00E9486008F3FE1F75C
:0202100008954F
:0C0212008093BA0084EC8093BC00089537
:04021E000C9400003C
:040222000E945F00D7
:02022600089539
:02022800089537
:02022A00089535
:00000001FF
