:100000000C9434000C94FC000C94FC000C94FC0048
:100010000C94FC000C94FC000C94FC000C94FC0070
:100020000C94FC000C94FC000C94FC000C94FC0060
:100030000C94FC000C94FC000C94FC000C94FC0050
:100040000C94FC000C94FC000C94FC000C94FC0040
:100050000C94FC000C94FC000C94FC000C94FC0030
:100060000C94FC000C94FC0011241FBECFEFD4E0D4
:10007000DEBFCDBF0E9440000C94EB00F894FFCF90
:1000800084B1846084B984B1826084B98BB18064A6
:100090008BB98BB180688BB98CE30E94F600C0E00D
:1000A000D0E04F9904C085B1846085B903C085B1A3
:1000B0008B7F85B94E9904C085B1826085B903C034
:1000C00085B18D7F85B90E94CC00882319F08130DD
:1000D00061F0E7CF0E94A900982F853211F4C1E0AA
:1000E000D0E08BB99F3FB1F7DCCFC130D105C9F665
:1000F00089B1807C0E9481008823D1F3C0E0D0E0E8
:02010000D0CF5E
:100102008093BB0084EC8093BC008091BC00882368
:10011200E4F78091B900887F803A39F4ECEBF0E0A3
:100122008081806880838FEF0895883B69F0803CEE
:1001320039F4ECEBF0E08081806880838EEF0895E3
:10014200883C21F48DEF089580E008958CEF0895A6
:1001520084EC8093BC008091BC008823E4F78091FA
:10016200B900887F803811F0803919F48091BB0082
:100172000895883811F0883919F48091BB000895E8
:10018200803A39F4ECEBF0E08081806880838FEF75
:0601920008958EEF0895B0
:100198008091BC008823E4F78091B900887F80367D
:1001A80061F0883661F0883A61F0803B61F0803711
:1001B80061F0883769F782E0089580E0089580E06B
:0E01C800089581E0089581E0089582E0089591
:1001D600EC010E9401010E940001CE010E94020171
:0601E600CE010E94FE00A4
:0C01EC008093BA0084EC8093BC0008955E
:0401F8000C94000063
:0401FC000E943E001F
:0202000008955F
:0202020008955D
:0202040008955B
:00000001FF
