S016000041546D65676133325F536C6176652E7372656320
S11300000C9434000C943E000C943E000C943E007E
S11300100C943E000C943E000C943E000C943E0064
S11300200C943E000C943E000C943E000C943E0054
S11300300C943E000C943E000C943E000C943E0044
S11300400C943E000C943E000C943E000C943E0034
S11300500C943E000C943E000C943E000C943E0024
S11300600C943E000C943E0011241FBECFEFD4E04C
S1130070DEBFCDBF0E9440000C94E0000C94000051
S1130080229A219A8CE30E947400C0E0D0E001E03F
S113009010E0E12CF12C4F9902C02A9A01C02A9851
S11300A04E9902C0299A01C029980E947A00882397
S11300B019F0813049F0EFCF0E94BE00853281F003
S11300C08BB98F3FC9F7E7CFC130D10521F789B18B
S11300D0807C0E9495008823D1F3CE2DDF2DDBCFC9
S11300E08BB9C02FD12FE8CF8093BA0084EC8093D2
S11300F0BC000895ECEBF0E0A9EBB0E0808188232C
S1130100ECF78C91982F987F807F803641F0983A55
S113011041F0903B41F0803789F782E0089580E018
S1130120089581E0089581E008958093BB0084ECF4
S11301308093BC00ECEBF0E080818823ECF78091A5
S1130140B900887F803A39F4ECEBF0E08081806874
S113015080838FEF0895883B69F0803C39F4ECEBA1
S1130160F0E08081806880838EEF0895883C21F0E0
S11301708CEF089580E008958DEF089584EC8093CA
S1130180BC00ECEBF0E080818823ECF78091B900AF
S1130190982F987E903819F48091BB000895983870
S11301A019F48091BB000895887F803A39F4ECEB10
S11301B0F0E08081806880838FEF08958EEF08954A
S10701C0F894FFCFDD
S9030000FC
