:100000000C9437000C9461000C9480000C94CF0089
:100010000C94CF000C94CF000C94CF000C94CF0024
:100020000C94CF000C94CF000C94CF000C94CF0014
:100030000C94CF000C94CF000C94CF000C94CF0004
:100040000C94CF000C94CF000C94CF000C94CF00F4
:100050000C94CF000C94CF000C94CF000C94CF00E4
:100060000C94CF000C94CF000100010480001124F7
:100070001FBECFEFD8E0DEBFCDBFE8E6F0E040E046
:1000800017C0B591A59135912591059107FD0CC03B
:1000900095918591EF01F92FE82F05900D92A21708
:1000A000B307D9F7FE0104C01D92A217B307E1F709
:1000B000ED36F40731F70E949F000C94C400F894C9
:0200C000FFCF70
:1000C2001F920F920FB60F9211248F939F938091DC
:1000D200020190910301019729F4109203011092F9
:1000E200020106C081E090E0909303018093020137
:0E00F2009F918F910F900FBE0F901F90189549
:100100001F920F920FB60F9211248F939F9380919D
:10011000020190910301019729F4109201011092BC
:10012000000106C081E090E09093010180930001FE
:0E0130009F918F910F900FBE0F901F9018950A
:10013E0087B1806287B90E94B300789480910201E2
:10014E0090910301019721F488B1806288B9F6CFAE
:08015E0088B18F7D88B9F2CF52
:100166008AB1837F8AB98BB184608BB98DB3836082
:100176008DBBE9E6F0E080818F60808383E08CBBF5
:020186000895DA
:10018800EC010E94D4000E94D300CE010E94D50049
:06019800CE010E94D1001F
:04019E000C940000BD
:0401A2000E945F0058
:0201A6000895BA
:0201A8000895B8
:0201AA000895B6
:00000001FF
