:100000000C943B000C9451020C9451020C9451023C
:100010000C9451020C9451020C9451020C94510214
:100020000C9451020C9451020C9451020C94510204
:100030000C9451020C9451020C9451020C945102F4
:100040000C9451020C9451020C9451020C945102E4
:100050000C9451020C9451020C9451020C945102D4
:100060000C9451020C9451028200A100BC00D700F4
:10007000F6001501340111241FBECFEFD4E0DEBF1E
:10008000CDBFE6E7F0E040E017C0B591A59135910E
:100090002591059107FD0CC095918591EF01F92FF0
:1000A000E82F05900D92A217B307D9F7FE0104C0FF
:1000B0001D92A217B307E1F7E637F40731F70E9464
:0A00C0003E010C942302F894FFCFD8
:1000CA0090E0FC01E156F109E730F10508F0D0C0F3
:1000DA00EC5CFF4F0C943F0285B1826085B984E2E3
:1000EA008A95F1F700C085B18D7F85B994E29A951A
:1000FA00F1F700C02E5F3F4F02C020E030E0293EFA
:10010A0083E038074CF385B18D7F85B9089585B1B1
:10011A00826085B98FEF90E00197F1F700C0000087
:10012A0085B18D7F85B98FEF90E00197F1F700C017
:10013A000000205F3F4F02C020E030E0293E93E0FC
:10014A0039072CF385B18D7F85B9089585B1826011
:10015A0085B98AEA8A95F1F700C085B18D7F85B99C
:10016A009AEA9A95F1F700C0285F3F4F02C020E053
:10017A0030E0293E83E038074CF385B18D7F85B99D
:10018A00089585B1826085B992E99A95F1F700C020
:10019A0085B18D7F85B982E98A95F1F700C0245F20
:1001AA003F4F02C020E030E0293E93E039074CF38C
:1001BA0085B18D7F85B9089585B1826085B985E25B
:1001CA0092E00197F1F700C0000085B18D7F85B9F3
:1001DA0085E292E00197F1F700C00000265F3F4FE9
:1001EA0002C020E030E0293E93E039072CF385B1C4
:1001FA008D7F85B9089585B1826085B983E591E0DF
:10020A000197F1F700C0000085B18D7F85B983E5BC
:10021A0091E00197F1F700C00000285F3F4F02C04C
:10022A0020E030E0293E93E039072CF385B18D7F39
:10023A0085B9089585B1826085B983E591E0019712
:10024A00F1F700C0000085B18D7F85B983E591E0A3
:10025A000197F1F700C0000024523F4F02C020E08E
:10026A0030E0293E93E039072CF385B18D7F85B9BB
:02027A000895E5
:10027C000E94F2010E944E020E940E020E94B901DD
:10028C008038910509F449C0A0F48830910509F42F
:10029C004AC028F4009731F10197E1F14AC080324D
:1002AC00910531F18034910501F1409709F041C07D
:1002BC0028C0811520E19207C9F140F4811521E095
:1002CC009207C9F081159840F9F033C0811520E4EC
:1002DC009207E9F0811520E8920781F08115904290
:1002EC0041F51EC08CE38EBD26C080E38EBD23C0BD
:1002FC0081E38EBD20C082E38EBD1DC083E38EBD25
:10030C001AC084E38EBD17C085E38EBD14C086E38E
:10031C008EBD11C087E38EBD0EC088E38EBD0BC0B1
:10032C0089E38EBD08C08AE38EBD05C08BE38EBD0C
:10033C0002C08CE38EBD0E944502803E41F0803F9E
:10034C0019F0803D49F406C00E944A0205C00E9483
:10035C00380202C00E942E0289EF90E00197F1F75B
:06036C0000C000008BCF71
:1003720088B1816088B986E08A95F1F700C088B1BA
:100382008E7F88B986E08A95F1F700C088B18E7FAA
:1003920088B986E08A95F1F700C020E030E060E09D
:1003A20070E01AC08AE08A95F1F7329B0AC041E0F8
:1003B20050E0022E02C0440F551F0A94E2F7642B4C
:1003C200752B98B1926098B98AE08A95F1F798B145
:1003D2009D7F98B92F5F3F4F203131051CF3CB0130
:0203E20008957C
:1003E40084B1826084B987B1816087B987B1826042
:1003F40087B987B18B7F87B984B1806184B984B1AF
:100404008B7F84B984B1877F84B984B18F7D84B9AB
:0804140088B1846088B90895E5
:10041C001092C5008CE08093C400E0ECF0E0808189
:10042C0082608083E1ECF0E0808188618083E2EC83
:0A043C00F0E080818660808308955F
:10044600EC010E9456020E945502CE010E945702FC
:06045600CE010E945302DA
:10045C0082E60E94650083E60E94650081E60E94A8
:04046C00650008958A
:0E04700086E60E94650085E60E9465000895FC
:0C047E00EE0FFF1F0590F491E02D099493
:0A048A000DB407FEFDCF8EB50895F6
:0804940084E60E946500089552
:06049C0080E48CBD089510
:0404A2000C940000B6
:0404A6000E9463004D
:0204AA000895B3
:0204AC000895B1
:0204AE000895AF
:00000001FF
