:100000000C9434000C94BF000C94BF000C94BF00FF
:100010000C94BF000C94BF000C94BF000C94BF0064
:100020000C94BF000C94BF000C94BF000C94BF0054
:100030000C94BF000C94BF000C94BF000C94BF0044
:100040000C94BF000C94BF000C94BF000C94BF0034
:100050000C94BF000C94BF000C94BF000C94BF0024
:100060000C94BF000C94BF0011241FBECFEFD4E04E
:10007000DEBFCDBF0E9440000C949800F894FFCFE3
:100080002FE986E891E0215080409040E1F700C0E0
:1000900000000E94BB000E94B50081E20E94740033
:1000A00081EE94E00197F1F700C000000E94A300E8
:1000B000C82F9FE926E881E0915020408040E1F779
:1000C00000C000000E94AD00C13021F485B1816004
:1000D00085B903C085B18E7F85B98BE49DE1019719
:0800E000F1F700C00000D9CFC8
:1000E80094EA9093BC009091BC009923E4F7909116
:1000F800B900987F903191F48093BB0084E8809395
:10010800BC008091BC008823E4F78091B900887F07
:10011800803431F0803231F482E0089580E008952F
:0801280081E0089583E00895D1
:10013000EC010E94C4000E94C300CE010E94C500D1
:06014000CE010E94C10087
:1001460084EC8093BC008091BC008823E4F7809106
:04015600BB0008954D
:10015A0084E98093BC008091BC0084FDFCCF0895A3
:0C016A001092B9008FEF8093B800089548
:0801760084B1816084B9089591
:04017E000C940000DD
:040182000E943E0099
:020186000895DA
:020188000895D8
:02018A000895D6
:00000001FF
