:100000000C9434000C94E8000C94E8000C94E80084
:100010000C94E8000C94E8000C94E8000C94E800C0
:100020000C94E8000C94E8000C94E8000C94E800B0
:100030000C94E8000C94E8000C94E8000C94E800A0
:100040000C94E8000C94E8000C94E8000C94E80090
:100050000C94E8000C94E8000C94E8000C94E80080
:100060000C94E8000C94E80011241FBECFEFD8E0F8
:10007000DEBFCDBF0E9440000C94D700F894FFCFA4
:1000800084B1826084B98AE50E94E200C0E0D0E0D9
:100090004F9904C085B1826085B903C085B18D7F59
:1000A00085B90E94B800882319F0813051F0F0CF53
:1000B0000E949500853311F4C1E0D0E08F3FC1F775
:1000C000E7CFC130D10521F789B180780E946D005A
:0A00D0008823D1F3C0E0D0E0DBCFBD
:1000DA008093BB0084EC8093BC008091BC00882391
:1000EA00E4F78091B900887F803A39F4ECEBF0E0CC
:1000FA008081806880838FEF0895883B69F0803C17
:10010A0039F4ECEBF0E08081806880838EEF08950B
:10011A00883C21F48DEF089580E008958CEF0895CE
:10012A0084EC8093BC008091BC008823E4F7809122
:10013A00B900887F803811F0803919F48091BB00AA
:10014A000895883811F0883919F48091BB00089510
:10015A00803A39F4ECEBF0E08081806880838FEF9D
:06016A0008958EEF0895D8
:100170008091BC008823E4F78091B900887F8036A5
:1001800061F0883661F0883A61F0803B61F0803739
:1001900061F0883769F782E0089580E0089580E093
:0E01A000089581E0089581E0089582E00895B9
:1001AE00EC010E94ED000E94EC00CE010E94EE00D8
:0601BE00CE010E94EA00E0
:0C01C4008093BA0084EC8093BC00089586
:0401D0000C9400008B
:0401D4000E943E0047
:0201D800089588
:0201DA00089586
:0201DC00089584
:00000001FF
