S01B000041546D65676131365F4D61737465725F4932432E737265638B
S11300000C942A000C943F000C943F000C943F0085
S11300100C943F000C943F000C943F000C943F0060
S11300200C943F000C943F000C943F000C943F0050
S11300300C943F000C943F000C943F000C943F0040
S11300400C943F000C943F000C943F000C943F0030
S11300500C943F0011241FBECFE5D4E0DEBFCDBF1A
S113006010E0A0E6B0E0ECEBF2E002C005900D92E7
S1130070AA36B107D9F70E9441000C945C010C9494
S11300800000CF92DF92EF92FF920F931F93CF93D2
S1130090DF93CDB7DEB72A970FB6F894DEBF0FBE55
S11300A0CDBF85E0E0E6F0E0DE01119601900D920F
S11300B08A95E1F7FE01369685E0DF011D928A9567
S11300C0E9F70E9446010E94BF0080EA0E94C30033
S11300D080E00E940301FE0131966F0100E010E010
S11300E07F0107C0D6018D916D010E9403010F5F4E
S11300F01F4FF70101900020E9F73197EE19FF092E
S11301000E171F0778F30E94FD00EFE1FEE431971C
S1130110F1F700C0000080EA0E94C30080E00E9462
S1130120030181EA0E94E00000E010E0CE010196A4
S11301307C0106C00E9415010E9434010F5F1F4F0D
S1130140F70101900020E9F73197EE19FF090E1726
S11301501F0780F30E941C010E94FD0080E090E0D4
S11301602A960FB6F894DEBF0FBECDBFDF91CF91B4
S11301701F910F91FF90EF90DF90CF90089511B8E9
S113018080E280B9089594EA96BF06B607FEFDCFD3
S113019091B1987F983071F483B984E886BF06B62C
S11301A007FEFDCF81B1887F883131F0803231F490
S11301B082E0089580E0089581E0089583E0089541
S11301C094EA96BF06B607FEFDCF91B1987F9031B1
S11301D071F483B984E886BF06B607FEFDCF81B10A
S11301E0887F803431F0803231F482E0089580E0F9
S11301F0089581E0089583E0089584E986BF06B6F2
S113020004FCFDCF089583B984E886BF06B607FED3
S1130210FDCF81B1887F883221F0803321F481E0E1
S1130220089580E0089582E0089584EC86BF06B6C0
S113023007FEFDCF83B1089584E886BF06B607FEA6
S1130240FDCF83B1089588BB84E085BB8FEC97E034
S11302500197F1F700C0000015BA8FE097E201970B
S1130260F1F700C00000089588BB84E185BB8FECE2
S113027097E00197F1F700C0000080E185BB8FE0B3
S113028097E20197F1F700C0000008958FEF84BB57
S113029087BB8FE39CE90197F1F700C0000088E376
S11302A00E94230181E00E9423018CE00E9423012B
S10F02B080E80E9423010895F894FFCF19
S10D02BC7465737400000000000074
S9030000FC
