:100000000C9434000C94C1000C94C1000C94C100F9
:100010000C94C1000C94C1000C94C1000C94C1005C
:100020000C94C1000C94C1000C94C1000C94C1004C
:100030000C94C1000C94C1000C94C1000C94C1003C
:100040000C94C1000C94C1000C94C1000C94C1002C
:100050000C94C1000C94C1000C94C1000C94C1001C
:100060000C94C1000C94C10011241FBECFEFD4E04A
:10007000DEBFCDBF0E94AB000C94B600F894FFCF5A
:1000800093E09A95F1F7000020E030E018C0482F87
:1000900050E0022E02C0559547950A94E2F740FFC2
:1000A0000CC0E7E0F0E0E21BF30B41E050E002C0DF
:1000B000440F551FEA95E2F7642B2F5F3F4F28301E
:1000C00031052CF380E090E024C0262F30E0082E8C
:1000D00002C0359527950A94E2F720FF04C028B1A5
:1000E000206128B903C028B12F7E28B928B1206229
:1000F00028B9E3ECF9E03197F1F700C0000028B12E
:100100002F7D28B9E3ECF9E03197F1F700C000004A
:0A01100001968A309105CCF20895A3
:10011A0000C000C0000088B18F7E88B900C000C04E
:10012A00000088B18F7D88B983E08A95F1F70000D5
:02013A00089526
:10013C0087B1806387B988B1806388B989EF90E013
:0A014C000197F1F700C000000895CC
:100156000E949E000E948D008AE08A95F1F780EA4F
:060166000E944000FFCFE3
:10016C00EC010E94C6000E94C500CE010E94C7008F
:06017C00CE010E94C30049
:040182000C940000D9
:040186000E943E0095
:02018A000895D6
:02018C000895D4
:02018E000895D2
:00000001FF
