:100000000C9434000C946B000C946B000C946B00FB
:100010000C946B000C946B000C946B000C946B00B4
:100020000C946B000C946B000C946B000C946B00A4
:100030000C946B000C946B000C946B000C946B0094
:100040000C946B000C946B000C946B000C946B0084
:100050000C946B000C946B000C946B000C946B0074
:100060000C946B000C946B0011241FBECFEFD4E0F6
:10007000DEBFCDBF0E9440000C945300F894FFCF28
:100080000E9468000E945E000E94630000C000C0E1
:100090000000813021F488B1806288B9F5CF88B141
:0600A0008F7D88B9F1CF4D
:1000A600EC010E9470000E946F00CE010E94710058
:0600B600CE010E946D0066
:0A00BC0080E184B980E48CBD089552
:0A00C6000DB407FEFDCF8EB50895BE
:0600D0008FEF87B90895CF
:0400D6000C94000086
:0400DA000E943E0042
:0200DE00089583
:0200E000089581
:0200E20008957F
:00000001FF
